:100000003CC04EC04DC04CC04BC04AC049C048C0A7
:1000100047C046C045C044C043C042C041C03E5135
:1000200049453E0000427F40000072494949460070
:100030002141494D33001814127F100027454545D2
:1000400039003C4A4949310041211109070036492C
:1000500049493600464949291E00000000000000B9
:100060000006090600003E41414122000808080838
:100070000800AE2000A87FA4AF0011241FBECFE56A
:10008000D2E0DEBFCDBF10E0A0E6B0E0ECE6F3E0EA
:1000900002C005900D92A236B107D9F723D164C1F1
:1000A000AFCF87B38A7F87BB88B38A7F88BB089529
:1000B00098E0B89A87FDB898BA98880FBA9A915084
:1000C000C1F7B898BA980000BA9A0895B89ABA9A3F
:1000D000EFCFB89ABA98B8980895CF93DF93E1DF3D
:1000E00088E7F4DF80E0E4DFC2E7D0E0FE0184913E
:1000F000DFDF2196F0E0C937DF07C1F7DF91CF914D
:10010000E8CFCF93DF93C82FD62F88E7DFDF80E0DB
:10011000CFDF8C2F8F70CCDF8C2F82958F7080611A
:10012000C7DF8D2F806BC4DFDF91CF91D2CF88E7FF
:10013000CDDF80E4BDDF80E0BBDFCBCFCF93DF93AB
:10014000D0E0C0E06C2F8D2FDCDFF1DFCF5FC0315E
:10015000C9F7DF5FD7FFF5CFDF91CF910895AC01ED
:100160009C0184E0220F331F8A95E1F722273F701C
:100170004F705527242B352BC901880F991F880FE5
:10018000991F282B392B23733373C901880F991FAB
:10019000822B932B857595759C01220F331F822B23
:1001A000932B0895FF920F931F93CF93DF93D82F34
:1001B000C92F842FA6DF88E789DF80E479DF8D2FC0
:1001C0009C2F66E070E098D0EC01C25EDF4F86E0C5
:1001D000F82EFE0184912091600030916100213061
:1001E000310559F465DFFA942196F110F2CFDF91D1
:1001F000CF911F910F91FF906CCF90E0B0DF8C01F9
:1002000057DF812F55DF802F53DF812FEBCF7F9278
:100210008F929F92AF92BF92CF92DF92EF92FF9216
:100220000F931F93CF93DF937C01EB018A0197FF1C
:100230000EC0AB01B8018CE090E0B4DFF194E19422
:10024000F1088091600090916100C80FD91F84E08F
:10025000A82EB12C98EEC92E93E0D92E712C2AE04D
:10026000822E912CC701B60158D0CB01B40155D0D4
:10027000811106C0711006C091E0C916D10481F544
:1002800077247394AE01B80190E08CDF8091600018
:1002900090916100C80FD91FC601B40152D06B0103
:1002A00081E0A81AB108F1F6AE01B8018BE090E048
:1002B00079DF40916000509161004C0F5D1FB801E3
:1002C0008CE090E0DF91CF911F910F91FF90EF9024
:1002D000DF90CF90BF90AF909F908F907F9062CF34
:1002E0008AE0D0CFFADE2ADF41E050E061E070E042
:1002F00083E690E08CDFF8CF0024552704C0080E79
:10030000591F880F991F009729F076956795B8F3C4
:100310007105B9F7802D952F0895AA1BBB1B51E1DC
:1003200007C0AA1FBB1FA617B70710F0A61BB70B65
:10033000881F991F5A95A9F780959095BC01CD010A
:10034000089597FB072E16F4009406D077FD08D089
:10035000E4DF07FC05D03EF4909581959F4F08950A
:0C036000709561957F4F0895F894FFCFD1
:02036C0001008E
:00000001FF
