:1000000012C019C018C017C016C015C014C013C044
:1000100012C011C010C00FC00EC00DC00CC0AE2069
:1000200000A87FA4AF0011241FBECFE5D2E0DEBF41
:10003000CDBF44D049C0E4CF87B38A7F87BB88B3A4
:100040008A7F88BB089598E0B89A87FDB898BA98D7
:10005000880FBA9A9150C1F7B898BA980000BA9A26
:100060000895B89ABA9AEFCFB89ABA98B8980895FE
:10007000CF93DF93E1DF88E7F4DF80E0E4DFCEE1D8
:10008000D0E0FE018491DFDF2196F0E0C532DF078A
:10009000C1F7DF91CF91E8CF88E7E3DF80E0D3DFDE
:1000A00080E1D1DF80E0CFDF8FEBCDDFDDCF88E7F0
:1000B000D8DF80E4C8DF80E0C6DFD6CFD9DFECDF51
:0C00C000F6DF90E080E00895F894FFCF98
:00000001FF
