:1000000039C04BC04AC049C048C047C046C045C0BF
:1000100044C043C042C041C040C03FC03EC03E514A
:1000200049453E0000427F40000072494949460070
:100030002141494D33001814127F100027454545D2
:1000400039003C4A4949310041211109070036492C
:1000500049493600464949291E00000000000000B9
:100060000006090600003E4141412200AE2000A8E2
:100070007FA4AF0011241FBECFE5D2E0DEBFCDBF0D
:1000800010E0A0E6B0E0EEEDF2E002C005900D92C7
:10009000A036B107D9F7D4D020C1B2CF87B38A7FB9
:1000A00087BB88B38A7F88BB089598E0B89A87FD9C
:1000B000B898BA98880FBA9A9150C1F7B898BA9878
:1000C0000000BA9A0895B89ABA9AEFCFB89ABA9837
:1000D000B8980895CF93DF93E1DF88E7F4DF80E0FD
:1000E000E4DFCCE6D0E0FE018491DFDF2196F0E092
:1000F000C337DF07C1F7DF91CF91E8CFCF93DF930D
:10010000C82FD62F88E7DFDF80E0CFDF8C2F8F70FE
:10011000CCDF8C2F82958F708061C7DF8D2F806B35
:10012000C4DFDF91CF91D2CF88E7CDDF80E4BDDFA0
:1001300080E0BBDFCBCFCF93DF93D0E0C0E06C2F6C
:100140008D2FDCDFF1DFCF5FC031C9F7DF5FD7FF75
:10015000F5CFDF91CF9108951F93CF93DF93D82FE1
:10016000C92F88E7B0DF80E4A0DF8D2F9C2F66E0E9
:1001700070E07BD0EC01C25EDF4F16E0FE0184919F
:1001800094DF115021961111F9CFDF91CF911F917A
:100190009DCF8F929F92AF92BF92CF92DF92EF92BC
:1001A000FF920F931F93CF93DF93982E092FEB01AC
:1001B000142F5B0180E2A80EB11C88EEE82E83E0CC
:1001C000F82E9AE0C92ED12C612F8C2F97DF892D24
:1001D000902FB7015BD0CB01B60158D0BDDF8C2E7C
:1001E0002896C701B60166D07B01CA15DB0561F709
:1001F000612F8C2F83DF8BE090E0AEDF612F80E1F9
:10020000880D7CDF8CE090E0DF91CF911F910F9102
:10021000FF90EF90DF90CF90BF90AF909F908F9026
:100220009BCF8FE887B98CEC86B913B888E085BF7F
:10023000089585B715BE84B195B128E025BF08950E
:1002400049DF79DFEEDFF5DF50E040E070E060E0AD
:10025000805191409EDF2FE38DE093E0215080405C
:100260009040E1F700C00000EECF0024552704C005
:10027000080E591F880F991F009729F076956795EA
:10028000B8F37105B9F7802D952F0895AA1BBB1BF4
:1002900051E107C0AA1FBB1FA617B70710F0A61B86
:1002A000B70B881F991F5A95A9F780959095BC01A7
:1002B000CD01089597FB072E16F4009406D077FD24
:1002C00008D0E4DF07FC05D03EF4909581959F4F60
:0E02D0000895709561957F4F0895F894FFCFC3
:00000001FF
