:1000000012C019C018C017C016C015C014C013C044
:1000100012C011C010C00FC00EC00DC00CC0AE2069
:1000200000A87FA5AF0011241FBECFE5D2E0DEBF40
:10003000CDBF32D035C0E4CF87B38A7F87BB88B3CA
:100040008A7F88BB089598E0B89A87FDB898BA98D7
:10005000880FBA9A9150C1F7B898BA980000BA9A26
:100060000895B89ABA9AEFCFB89ABA98B8980895FE
:10007000CF93DF93E1DF88E7F4DF80E0E4DFCEE1D8
:10008000D0E0FE018491DFDF2196F0E0C532DF078A
:10009000C1F7DF91CF91E8CFEBDF90E080E00895EA
:0400A000F894FFCF02
:00000001FF
