:1000000012C019C018C017C016C015C014C013C044
:1000100012C011C010C00FC00EC00DC00CC0AE2069
:1000200000A87FA4AF0011241FBECFE5D2E0DEBF41
:10003000CDBF60D064C0E4CF87B38A7F87BB88B36D
:100040008A7F88BB089598E0B89A87FDB898BA98D7
:10005000880FBA9A9150C1F7B898BA980000BA9A26
:100060000895B89ABA9AEFCFB89ABA98B8980895FE
:10007000CF93DF93E1DF88E7F4DF80E0E4DFCEE1D8
:10008000D0E0FE018491DFDF2196F0E0C532DF078A
:10009000C1F7DF91CF91E8CFCF93DF93C82FD62F51
:1000A00088E7DFDF80E0CFDF8C2F8F70CCDF8C2FF5
:1000B00082958F708061C7DF8D2F806BC4DFDF91E9
:1000C000CF91D2CF88E7CDDF80E4BDDF80E0BBDF1A
:1000D000CBCFCF93DF93D0E0C0E06C2F8D2FDCDF50
:1000E000F1DFCF5FC031C9F7DF5FD7FFF5CFDF9119
:1000F000CF910895BDDFEDDF90E080E00895F894A2
:02010000FFCF2F
:00000001FF
