:100000002BC032C031C030C02FC02EC02DC02CC07C
:100010002BC02AC029C028C027C026C025C03E51F9
:1000200049453E00427F40004261514946214145D9
:100030004B311814127F1027454545393C4A494930
:100040003001710905033649494936064949291ED7
:10005000AE2000A87FA4AF0011241FBECFE5D2E0E0
:10006000DEBFCDBF73D07BC0CBCF87B38A7F87BBCA
:1000700088B38A7F88BB089598E0B89A87FDB898BE
:10008000BA98880FBA9A9150C1F7B898BA980000F8
:10009000BA9A0895B89ABA9AEFCFB89ABA98B89817
:1000A0000895CF93DF93E1DF88E7F4DF80E0E4DFBA
:1000B000C0E5D0E0FE018491DFDF2196F0E0C73596
:1000C000DF07C1F7DF91CF91E8CFCF93DF93C82F40
:1000D000D62F88E7DFDF80E0CFDF8C2F8F70CCDF7B
:1000E0008C2F82958F708061C7DF8D2F806BC4DF6E
:1000F000DF91CF91D2CFCF93DF9388E7CBDF80E43E
:10010000BBDFCEE1D0E0FE018491B6DF2196F0E0C6
:10011000C035DF07C1F7DF91CF91BFCF88E7BADFE6
:1001200080E4AADF80E0A8DFB8CFCF93DF93D0E0F0
:10013000C0E06C2F8D2FC9DFF1DFCF5FC031C9F771
:10014000DF5FD7FFF5CFDF91CF910895AADFEDDF15
:1001500060E080E0BADFCFDF90E080E00895F894BF
:02016000FFCFCF
:00000001FF
